{
  "contractName": "Exchange",
  "abi": [
    {
      "inputs": [
        {
          "internalType": "address",
          "name": "_feeAccount",
          "type": "address"
        },
        {
          "internalType": "uint256",
          "name": "_feePercent",
          "type": "uint256"
        }
      ],
      "stateMutability": "nonpayable",
      "type": "constructor"
    },
    {
      "anonymous": false,
      "inputs": [
        {
          "indexed": false,
          "internalType": "uint256",
          "name": "id",
          "type": "uint256"
        },
        {
          "indexed": false,
          "internalType": "address",
          "name": "userAdr",
          "type": "address"
        },
        {
          "indexed": false,
          "internalType": "address",
          "name": "tokenGetAdr",
          "type": "address"
        },
        {
          "indexed": false,
          "internalType": "uint256",
          "name": "amountGet",
          "type": "uint256"
        },
        {
          "indexed": false,
          "internalType": "address",
          "name": "tokenGiveAdr",
          "type": "address"
        },
        {
          "indexed": false,
          "internalType": "uint256",
          "name": "amountGive",
          "type": "uint256"
        },
        {
          "indexed": false,
          "internalType": "uint256",
          "name": "timestamp",
          "type": "uint256"
        }
      ],
      "name": "Cancel",
      "type": "event"
    },
    {
      "anonymous": false,
      "inputs": [
        {
          "indexed": false,
          "internalType": "address",
          "name": "token",
          "type": "address"
        },
        {
          "indexed": false,
          "internalType": "address",
          "name": "user",
          "type": "address"
        },
        {
          "indexed": false,
          "internalType": "uint256",
          "name": "amount",
          "type": "uint256"
        },
        {
          "indexed": false,
          "internalType": "uint256",
          "name": "balance",
          "type": "uint256"
        }
      ],
      "name": "Deposit",
      "type": "event"
    },
    {
      "anonymous": false,
      "inputs": [
        {
          "indexed": false,
          "internalType": "uint256",
          "name": "id",
          "type": "uint256"
        },
        {
          "indexed": false,
          "internalType": "address",
          "name": "userAdr",
          "type": "address"
        },
        {
          "indexed": false,
          "internalType": "address",
          "name": "tokenGetAdr",
          "type": "address"
        },
        {
          "indexed": false,
          "internalType": "uint256",
          "name": "amountGet",
          "type": "uint256"
        },
        {
          "indexed": false,
          "internalType": "address",
          "name": "tokenGiveAdr",
          "type": "address"
        },
        {
          "indexed": false,
          "internalType": "uint256",
          "name": "amountGive",
          "type": "uint256"
        },
        {
          "indexed": false,
          "internalType": "uint256",
          "name": "timestamp",
          "type": "uint256"
        }
      ],
      "name": "Order",
      "type": "event"
    },
    {
      "anonymous": false,
      "inputs": [
        {
          "indexed": false,
          "internalType": "uint256",
          "name": "id",
          "type": "uint256"
        },
        {
          "indexed": false,
          "internalType": "address",
          "name": "userAdr",
          "type": "address"
        },
        {
          "indexed": false,
          "internalType": "address",
          "name": "tokenGetAdr",
          "type": "address"
        },
        {
          "indexed": false,
          "internalType": "uint256",
          "name": "amountGet",
          "type": "uint256"
        },
        {
          "indexed": false,
          "internalType": "address",
          "name": "tokenGiveAdr",
          "type": "address"
        },
        {
          "indexed": false,
          "internalType": "uint256",
          "name": "amountGive",
          "type": "uint256"
        },
        {
          "indexed": false,
          "internalType": "address",
          "name": "userFillAdr",
          "type": "address"
        },
        {
          "indexed": false,
          "internalType": "uint256",
          "name": "timestamp",
          "type": "uint256"
        }
      ],
      "name": "Trade",
      "type": "event"
    },
    {
      "anonymous": false,
      "inputs": [
        {
          "indexed": false,
          "internalType": "address",
          "name": "token",
          "type": "address"
        },
        {
          "indexed": false,
          "internalType": "address",
          "name": "user",
          "type": "address"
        },
        {
          "indexed": false,
          "internalType": "uint256",
          "name": "amount",
          "type": "uint256"
        },
        {
          "indexed": false,
          "internalType": "uint256",
          "name": "balance",
          "type": "uint256"
        }
      ],
      "name": "Withdraw",
      "type": "event"
    },
    {
      "stateMutability": "nonpayable",
      "type": "fallback"
    },
    {
      "inputs": [],
      "name": "feeAccount",
      "outputs": [
        {
          "internalType": "address",
          "name": "",
          "type": "address"
        }
      ],
      "stateMutability": "view",
      "type": "function",
      "constant": true
    },
    {
      "inputs": [],
      "name": "feePercent",
      "outputs": [
        {
          "internalType": "uint256",
          "name": "",
          "type": "uint256"
        }
      ],
      "stateMutability": "view",
      "type": "function",
      "constant": true
    },
    {
      "inputs": [],
      "name": "orderCount",
      "outputs": [
        {
          "internalType": "uint256",
          "name": "",
          "type": "uint256"
        }
      ],
      "stateMutability": "view",
      "type": "function",
      "constant": true
    },
    {
      "inputs": [
        {
          "internalType": "uint256",
          "name": "",
          "type": "uint256"
        }
      ],
      "name": "orders",
      "outputs": [
        {
          "internalType": "uint256",
          "name": "id",
          "type": "uint256"
        },
        {
          "internalType": "address",
          "name": "userAdr",
          "type": "address"
        },
        {
          "internalType": "address",
          "name": "tokenGetAdr",
          "type": "address"
        },
        {
          "internalType": "uint256",
          "name": "amountGet",
          "type": "uint256"
        },
        {
          "internalType": "address",
          "name": "tokenGiveAdr",
          "type": "address"
        },
        {
          "internalType": "uint256",
          "name": "amountGive",
          "type": "uint256"
        },
        {
          "internalType": "uint256",
          "name": "timestamp",
          "type": "uint256"
        }
      ],
      "stateMutability": "view",
      "type": "function",
      "constant": true
    },
    {
      "inputs": [
        {
          "internalType": "uint256",
          "name": "",
          "type": "uint256"
        }
      ],
      "name": "ordersCancelled",
      "outputs": [
        {
          "internalType": "bool",
          "name": "",
          "type": "bool"
        }
      ],
      "stateMutability": "view",
      "type": "function",
      "constant": true
    },
    {
      "inputs": [
        {
          "internalType": "uint256",
          "name": "",
          "type": "uint256"
        }
      ],
      "name": "ordersFilled",
      "outputs": [
        {
          "internalType": "bool",
          "name": "",
          "type": "bool"
        }
      ],
      "stateMutability": "view",
      "type": "function",
      "constant": true
    },
    {
      "inputs": [
        {
          "internalType": "address",
          "name": "",
          "type": "address"
        },
        {
          "internalType": "address",
          "name": "",
          "type": "address"
        }
      ],
      "name": "tokens",
      "outputs": [
        {
          "internalType": "uint256",
          "name": "",
          "type": "uint256"
        }
      ],
      "stateMutability": "view",
      "type": "function",
      "constant": true
    },
    {
      "inputs": [],
      "name": "depositEther",
      "outputs": [],
      "stateMutability": "payable",
      "type": "function",
      "payable": true
    },
    {
      "inputs": [
        {
          "internalType": "uint256",
          "name": "_amount",
          "type": "uint256"
        }
      ],
      "name": "withdrawEthers",
      "outputs": [],
      "stateMutability": "nonpayable",
      "type": "function"
    },
    {
      "inputs": [
        {
          "internalType": "address",
          "name": "_token",
          "type": "address"
        },
        {
          "internalType": "uint256",
          "name": "_amount",
          "type": "uint256"
        }
      ],
      "name": "depositToken",
      "outputs": [],
      "stateMutability": "nonpayable",
      "type": "function"
    },
    {
      "inputs": [
        {
          "internalType": "address",
          "name": "_token",
          "type": "address"
        },
        {
          "internalType": "uint256",
          "name": "_amount",
          "type": "uint256"
        }
      ],
      "name": "withdrawTokens",
      "outputs": [],
      "stateMutability": "nonpayable",
      "type": "function"
    },
    {
      "inputs": [
        {
          "internalType": "address",
          "name": "_tokenAdr",
          "type": "address"
        },
        {
          "internalType": "address",
          "name": "_userAdr",
          "type": "address"
        }
      ],
      "name": "balanceOf",
      "outputs": [
        {
          "internalType": "uint256",
          "name": "",
          "type": "uint256"
        }
      ],
      "stateMutability": "view",
      "type": "function",
      "constant": true
    },
    {
      "inputs": [
        {
          "internalType": "address",
          "name": "_tokenGetAdr",
          "type": "address"
        },
        {
          "internalType": "uint256",
          "name": "_amountGet",
          "type": "uint256"
        },
        {
          "internalType": "address",
          "name": "_tokenGiveAdr",
          "type": "address"
        },
        {
          "internalType": "uint256",
          "name": "_amountGive",
          "type": "uint256"
        }
      ],
      "name": "createOrder",
      "outputs": [],
      "stateMutability": "nonpayable",
      "type": "function"
    },
    {
      "inputs": [
        {
          "internalType": "uint256",
          "name": "_id",
          "type": "uint256"
        }
      ],
      "name": "cancelOrder",
      "outputs": [],
      "stateMutability": "nonpayable",
      "type": "function"
    },
    {
      "inputs": [
        {
          "internalType": "uint256",
          "name": "_id",
          "type": "uint256"
        }
      ],
      "name": "fillOrder",
      "outputs": [],
      "stateMutability": "nonpayable",
      "type": "function"
    }
  ],
  "bytecode": "0x608060405234801561001057600080fd5b5060405161111938038061111983398101604081905261002f91610058565b600080546001600160a01b0319166001600160a01b039390931692909217909155600155610092565b6000806040838503121561006b57600080fd5b82516001600160a01b038116811461008257600080fd5b6020939093015192949293505050565b611078806100a16000396000f3fe6080604052600436106100e85760003560e01c806367b830ad1161008a578063c72abc5011610059578063c72abc50146102ec578063f42067061461031c578063f7888aec1461033c578063fc05ca311461035c576100e8565b806367b830ad146102345780637fd6f15c1461025457806398ea5fca1461026a578063a85c38ef14610272576100e8565b8063338b5dea116100c6578063338b5dea14610184578063508493bc146101a4578063514fcac7146101dc57806365e17c9d146101fc576100e8565b806306b091f9146100f9578063211686201461011b5780632453ffa814610160575b3480156100f457600080fd5b600080fd5b34801561010557600080fd5b50610119610114366004610e6a565b61037c565b005b34801561012757600080fd5b5061014b610136366004610e94565b60056020526000908152604090205460ff1681565b60405190151581526020015b60405180910390f35b34801561016c57600080fd5b5061017660065481565b604051908152602001610157565b34801561019057600080fd5b5061011961019f366004610e6a565b610566565b3480156101b057600080fd5b506101766101bf366004610ead565b600260209081526000928352604080842090915290825290205481565b3480156101e857600080fd5b506101196101f7366004610e94565b6106bc565b34801561020857600080fd5b5060005461021c906001600160a01b031681565b6040516001600160a01b039091168152602001610157565b34801561024057600080fd5b5061011961024f366004610e94565b6107cd565b34801561026057600080fd5b5061017660015481565b61011961093a565b34801561027e57600080fd5b506102d961028d366004610e94565b6003602081905260009182526040909120805460018201546002830154938301546004840154600585015460069095015493956001600160a01b03938416959084169492939091169187565b6040516101579796959493929190610ee0565b3480156102f857600080fd5b5061014b610307366004610e94565b60046020526000908152604090205460ff1681565b34801561032857600080fd5b50610119610337366004610e94565b6109bb565b34801561034857600080fd5b50610176610357366004610ead565b610aee565b34801561036857600080fd5b50610119610377366004610f1e565b610b1b565b6001600160a01b0382166103cf5760405162461bcd60e51b81526020600482015260156024820152742237903737ba103bb4ba34323930bb9022ba3432b960591b60448201526064015b60405180910390fd5b6001600160a01b038216600090815260026020908152604080832033845290915290205481111561043a5760405162461bcd60e51b8152602060048201526015602482015274496e73756666696369656e742062616c616e63657360581b60448201526064016103c6565b6001600160a01b03821660009081526002602090815260408083203384529091529020546104689082610c26565b6001600160a01b038316600081815260026020908152604080832033808552925291829020939093555163a9059cbb60e01b81526004810192909252602482018390529063a9059cbb906044016020604051808303816000875af11580156104d4573d6000803e3d6000fd5b505050506040513d601f19601f820116820180604052508101906104f89190610f62565b61050157600080fd5b6001600160a01b0382166000908152600260209081526040808320338085529252918290205491517ff341246adaac6f497bc2a656f546ab9e182111d630394f0c57c710a59a2cb5679261055a92869290918691610f84565b60405180910390a15050565b6001600160a01b0382166105b35760405162461bcd60e51b81526020600482015260146024820152732237903737ba103232b837b9b4ba1022ba3432b960611b60448201526064016103c6565b6040516323b872dd60e01b8152336004820152306024820152604481018290526001600160a01b038316906323b872dd906064016020604051808303816000875af1158015610606573d6000803e3d6000fd5b505050506040513d601f19601f8201168201806040525081019061062a9190610f62565b61063357600080fd5b6001600160a01b03821660009081526002602090815260408083203384529091529020546106619082610c39565b6001600160a01b03831660009081526002602090815260408083203380855292529182902083905590517fdcbc1c05240f31ff3ad067ef1ee35ce4997762752e3a095284754544f4c709d79261055a92869290918691610f84565b600081815260036020526040902060018101546001600160a01b031633146107175760405162461bcd60e51b815260206004820152600e60248201526d3737ba103cb7bab91037b93232b960911b60448201526064016103c6565b805482146107585760405162461bcd60e51b815260206004820152600e60248201526d1ddc9bdb99c81bdc99195c881a5960921b60448201526064016103c6565b600082815260046020819052604091829020805460ff1916600117905582546002840154600385015492850154600586015494517f77de1da0be5f2d3b110d05c6694e5c4ff2d9da7cd23d84353ecf78c7b5acec619561055a9533946001600160a01b03908116949193911691904290610ee0565b6000811180156107df57506006548111155b61081e5760405162461bcd60e51b815260206004820152601060248201526f1a5b9d985b1a59081bdc99195c881a5960821b60448201526064016103c6565b60008181526005602052604090205460ff16156108745760405162461bcd60e51b81526020600482015260146024820152731bdc99195c88185b1c9958591e48199a5b1b195960621b60448201526064016103c6565b60008181526004602052604090205460ff16156108d35760405162461bcd60e51b815260206004820152601760248201527f6f7264657220616c72656164792063616e63656c6c656400000000000000000060448201526064016103c6565b60008181526003602081905260409091208054600182015460028301549383015460048401546005850154949561091e956001600160a01b0394851694918216939290911690610c45565b506000908152600560205260409020805460ff19166001179055565b33600090815260008051602061102383398151915260205260409020546109619034610c39565b3360008181526000805160206110238339815191526020526040808220849055517fdcbc1c05240f31ff3ad067ef1ee35ce4997762752e3a095284754544f4c709d7936109b19391349190610f84565b60405180910390a1565b3360009081526000805160206110238339815191526020526040902054811115610a1f5760405162461bcd60e51b8152602060048201526015602482015274496e73756666696369656e742062616c616e63657360581b60448201526064016103c6565b3360009081526000805160206110238339815191526020526040902054610a469082610c26565b3360008181526000805160206110238339815191526020526040808220939093559151909183156108fc02918491818181858888f19350505050158015610a91573d6000803e3d6000fd5b5033600081815260008051602061102383398151915260205260408082205490517ff341246adaac6f497bc2a656f546ab9e182111d630394f0c57c710a59a2cb56793610ae393929091869190610f84565b60405180910390a150565b6001600160a01b038083166000908152600260209081526040808320938516835292905220545b92915050565b600654610b29906001610c39565b60068181556040805160e0810182528381523360208083018281526001600160a01b038b8116858701908152606086018c81528b83166080880190815260a088018c81524260c08a0181815260009d8e526003988990529c8b902099518a55955160018a0180549187166001600160a01b0319928316179055935160028a018054918716918616919091179055915195880195909555935160048701805491909316911617905590516005840155945191840191909155915490517f9d33853d43e3607b4cc01fdc78338ff2dca6fef7db9232dae6d3eb55fbc3b10993610c1893918991899189918991610ee0565b60405180910390a150505050565b6000610c328284610fc3565b9392505050565b6000610c328284610fd6565b6000610c676064610c6160015485610e3690919063ffffffff16565b90610e42565b9050610ca0610c768583610c39565b6001600160a01b038716600090815260026020908152604080832033845290915290205490610c26565b6001600160a01b0386811660009081526002602090815260408083203384529091528082209390935590881681522054610cda9085610c39565b6001600160a01b0386811660009081526002602090815260408083208b8516845290915280822093909355805490911681522054610d189082610c39565b6001600160a01b0380871660009081526002602081815260408084208454861685528252808420959095558784168352908152838220928a168252919091522054610d639083610c26565b6001600160a01b038481166000908152600260209081526040808320938b16835292905281812092909255338252902054610d9e9083610c39565b6001600160a01b03848116600081815260026020908152604080832033808552908352928190209590955584518c81528b8516918101919091529289168385015260608301889052608083019190915260a0820185905260c08201524260e082015290517f0dddf4182dc0fc1a311cb75f049c97403c6b8a99cf6b2229a36e7c526acb3f81918190036101000190a150505050505050565b6000610c328284610fe9565b6000610c328284611000565b80356001600160a01b0381168114610e6557600080fd5b919050565b60008060408385031215610e7d57600080fd5b610e8683610e4e565b946020939093013593505050565b600060208284031215610ea657600080fd5b5035919050565b60008060408385031215610ec057600080fd5b610ec983610e4e565b9150610ed760208401610e4e565b90509250929050565b9687526001600160a01b03958616602088015293851660408701526060860192909252909216608084015260a083019190915260c082015260e00190565b60008060008060808587031215610f3457600080fd5b610f3d85610e4e565b935060208501359250610f5260408601610e4e565b9396929550929360600135925050565b600060208284031215610f7457600080fd5b81518015158114610c3257600080fd5b6001600160a01b0394851681529290931660208301526040820152606081019190915260800190565b634e487b7160e01b600052601160045260246000fd5b81810381811115610b1557610b15610fad565b80820180821115610b1557610b15610fad565b8082028115828204841417610b1557610b15610fad565b60008261101d57634e487b7160e01b600052601260045260246000fd5b50049056feac33ff75c19e70fe83507db0d683fd3465c996598dc972688b7ace676c89077ba2646970667358221220010649ae367875e0c0d7540bbec962f866ad61596a45224084f64360690f6d4664736f6c63430008110033",
  "immutableReferences": {},
  "source": "/**\n * Author: GKing\n * Date: 2022-11-19 08:45:25\n * LastEditors: GKing\n * LastEditTime: 2022-11-22 22:37:00\n * Description: \n *  - Deposit & Withdraw Funds \n *  - Manage Orders - Make or Cancel \n *  - Handle Trades - Charge fees \n * TODO:\n * [X] Set the fee account\n * [X] Deposit Ether\n * [X] Withdraw Ether\n * [X] Deposit tokens\n * [X] Withdraw tokens\n * [X] Check balances\n * [X] Make order\n * [X] Cancel order\n * [X] Fill order\n * [X] Charge Fees\n */\n// SPDX-License-Identifier: MIT\npragma solidity ^0.8.7;\n\nimport \"./Token.sol\";\nimport \"@openzeppelin/contracts/utils/math/SafeMath.sol\";\n\ncontract Exchange {\n    using SafeMath for uint256;\n\n    // \n    address public feeAccount;\n    // \n    uint public feePercent;\n    // tokenseth\n    address constant ETHER = address(0);\n    //   token => ( => )\n    mapping(address => mapping(address => uint)) public tokens;\n    mapping(uint => _Order) public orders;\n    mapping(uint => bool) public ordersCancelled;\n    mapping(uint => bool) public ordersFilled;\n    // Order ID\n    uint public orderCount;\n    \n\n    //  ()\n    event Deposit(address token, address user, uint amount, uint balance);\n    event Withdraw(address token, address user, uint amount, uint balance);\n    event Order (\n        uint id,\n        address userAdr,\n        address tokenGetAdr,\n        uint amountGet,\n        address tokenGiveAdr,\n        uint amountGive,\n        uint timestamp\n    );\n    event Cancel (\n        uint id,\n        address userAdr,\n        address tokenGetAdr,\n        uint amountGet,\n        address tokenGiveAdr,\n        uint amountGive,\n        uint timestamp\n    );\n    event Trade (\n        uint id,\n        address userAdr,\n        address tokenGetAdr,\n        uint amountGet,\n        address tokenGiveAdr,\n        uint amountGive,\n        address userFillAdr,\n        uint timestamp\n    );\n\n    // Order model\n    struct _Order {\n        uint id;\n        address userAdr;\n        address tokenGetAdr;\n        uint amountGet;\n        address tokenGiveAdr;\n        uint amountGive;\n        uint timestamp;\n    }\n\n\n    constructor(address _feeAccount, uint _feePercent) {\n        feeAccount = _feeAccount;\n        feePercent = _feePercent;\n    }\n    /** \n     * name: \n     * desc: Fallback: reverts if Ether is sent to this smart contract by mistake\n     */\n    fallback() external {\n        revert();\n    }\n\n    /** \n     * name: depositEther\n     * desc: eth\n     * return {*}\n     */\n    function depositEther() payable public {\n        tokens[ETHER][msg.sender] = tokens[ETHER][msg.sender].add(msg.value);\n        emit Deposit(ETHER, msg.sender, msg.value, tokens[ETHER][msg.sender]);\n    }\n\n    /** \n     * name: withdrawEthers\n     * desc: Withdraw Ethers\n     * param {uint} _amount\n     * return {*}\n     */    \n    function withdrawEthers(uint _amount) public {\n        require(tokens[ETHER][msg.sender] >= _amount, 'Insufficient balances');\n        tokens[ETHER][msg.sender] = tokens[ETHER][msg.sender].sub(_amount);\n        payable(msg.sender).transfer(_amount);\n        emit Withdraw(ETHER, msg.sender, _amount, tokens[ETHER][msg.sender]);\n    }\n\n    /**\n     * name: depositToken\n     * desc: \n     * param {address} _token \n     * param {uint} _amount \n     * return {*}\n     */\n    function depositToken(address _token, uint _amount) public {\n        // don't allow Ether deposits\n        require(_token != ETHER, 'Do not deposit Ether');\n        // \n        require(Token(_token).transferFrom(msg.sender, address(this), _amount));\n        //  -> \n        tokens[_token][msg.sender] = tokens[_token][msg.sender].add(_amount);\n        // \n        emit Deposit(_token, msg.sender, _amount, tokens[_token][msg.sender]);\n    }\n\n    /** \n     * name: withdrawTokens\n     * desc: Withdraw Tokens\n     * param {address} _token \n     * param {uint} _amount\n     * return {*}\n     */    \n    function withdrawTokens(address _token, uint _amount) public {\n        require(_token != ETHER, 'Do not withdraw Ether');\n        require(tokens[_token][msg.sender] >= _amount, 'Insufficient balances');\n        tokens[_token][msg.sender] = tokens[_token][msg.sender].sub(_amount);\n        require(Token(_token).transfer(msg.sender, _amount));\n        emit Withdraw(_token, msg.sender, _amount, tokens[_token][msg.sender]);\n    }\n\n    /** \n     * name: balanceOf\n     * desc: user tokens balance\n     * param {address} _tokenAdr\n     * param {address} _userAdr\n     * return {*}\n     */\n    function balanceOf(address _tokenAdr, address _userAdr) public view returns (uint) {\n        return tokens[_tokenAdr][_userAdr];\n    }\n\n    /** \n     * name: createOrder\n     * desc: Create order\n     * param {address} _tokenGetAdr\n     * param {uint} _amountGet\n     * param {address} _tokenGiveAdr\n     * param {uint} _amountGive\n     * return {*}\n     */\n    function createOrder(address _tokenGetAdr, uint _amountGet, address _tokenGiveAdr, uint _amountGive) public {\n        orderCount = orderCount.add(1);\n        orders[orderCount] = _Order(orderCount, msg.sender, _tokenGetAdr, _amountGet, _tokenGiveAdr, _amountGive, block.timestamp);\n        emit Order(orderCount, msg.sender, _tokenGetAdr, _amountGet, _tokenGiveAdr, _amountGive, block.timestamp);\n    }\n\n    /** \n     * name: cancelOrder\n     * desc: Cancel order with order id\n     * param {uint} _id\n     * return {*}\n     */\n    function cancelOrder(uint _id) public {\n        _Order storage _order = orders[_id];\n        require(_order.userAdr == msg.sender, 'not your order');\n        require(_order.id == _id, 'wrong order id');\n        ordersCancelled[_id] = true;\n        emit Cancel(_order.id, msg.sender, _order.tokenGetAdr, _order.amountGet, _order.tokenGiveAdr, _order.amountGive, block.timestamp);\n    }\n\n    /** \n     * name: fillOrder\n     * desc: Fill order with id\n     * param {uint} _id\n     * return {*}\n     */  \n    function fillOrder(uint _id) public {\n        require(_id > 0 && _id <= orderCount, 'invalid order id');\n        require(!ordersFilled[_id], 'order already filled');\n        require(!ordersCancelled[_id], 'order already cancelled');\n        // Fetch the Order\n        _Order storage _order = orders[_id];\n        _trade(_order.id, _order.userAdr, _order.tokenGetAdr, _order.amountGet, _order.tokenGiveAdr, _order.amountGive);\n        // Mark order as filled\n        ordersFilled[_id] = true;\n    }\n\n    function _trade(uint _orderId, address _userAdr, address _tokenGetAdr, uint _amountGet, address _tokenGiveAdr, uint _amountGive) internal {\n        // Fee paid by the user that fills the order, a.k.a. msg.sender.\n        // Fee deducted from _amountGet\n        uint _feeAmount = _amountGive.mul(feePercent).div(100);\n        \n        // Exchange Trade\n        tokens[_tokenGetAdr][msg.sender] = tokens[_tokenGetAdr][msg.sender].sub(_amountGet.add(_feeAmount));\n        tokens[_tokenGetAdr][_userAdr] = tokens[_tokenGetAdr][_userAdr].add(_amountGet);\n        // Charge fees\n        tokens[_tokenGetAdr][feeAccount] = tokens[_tokenGetAdr][feeAccount].add(_feeAmount);\n        tokens[_tokenGiveAdr][_userAdr] = tokens[_tokenGiveAdr][_userAdr].sub(_amountGive);\n        tokens[_tokenGiveAdr][msg.sender] = tokens[_tokenGiveAdr][msg.sender].add(_amountGive);\n        \n        // Emit trade event\n        emit Trade(_orderId, _userAdr, _tokenGetAdr, _amountGet, _tokenGiveAdr, _amountGive, msg.sender, block.timestamp);\n    }\n    \n}\n",
  "sourcePath": "/Users/jacky/Documents/zhangjiqing/workSpace/crypto/Dapp/moonExchange/moon-exchange/contracts/Exchange.sol",
  "compiler": {
    "name": "solc",
    "version": "0.8.17+commit.8df45f5f.Emscripten.clang"
  },
  "schemaVersion": "3.4.10",
  "updatedAt": "2022-11-23T02:04:51.419Z",
  "networkType": "ethereum",
  "devdoc": {
    "kind": "dev",
    "methods": {},
    "version": 1
  },
  "userdoc": {
    "kind": "user",
    "methods": {
      "balanceOf(address,address)": {
        "notice": "name: balanceOf desc: user tokens balance param {address} _tokenAdr param {address} _userAdr return {*}"
      },
      "cancelOrder(uint256)": {
        "notice": "name: cancelOrder desc: Cancel order with order id param {uint} _id return {*}"
      },
      "createOrder(address,uint256,address,uint256)": {
        "notice": "name: createOrder desc: Create order param {address} _tokenGetAdr param {uint} _amountGet param {address} _tokenGiveAdr param {uint} _amountGive return {*}"
      },
      "depositEther()": {
        "notice": "name: depositEther desc: eth return {*}"
      },
      "depositToken(address,uint256)": {
        "notice": "name: depositToken desc:  param {address} _token  param {uint} _amount  return {*}"
      },
      "fillOrder(uint256)": {
        "notice": "name: fillOrder desc: Fill order with id param {uint} _id return {*}"
      },
      "withdrawEthers(uint256)": {
        "notice": "name: withdrawEthers desc: Withdraw Ethers param {uint} _amount return {*}"
      },
      "withdrawTokens(address,uint256)": {
        "notice": "name: withdrawTokens desc: Withdraw Tokens param {address} _token  param {uint} _amount return {*}"
      }
    },
    "version": 1
  }
}